:10007100E4FFFEE4FDFC0DBD00010CED64C94C7014
:0C008100F50FBF00010EEF64334E70E776
:01008D002250
:10008E00E4FFFEE4FDFC0DBD00010CED64C94C70F7
:0C009E00F50FBF00010EBE01EABFF5E740
:0100AA002233
:100003007590FE1200717590FD1200717590FB12D0
:1000130000717590F71200717590EF120071759071
:10002300DF1200717590BF12007175907F1200711D
:100033007590FE7590FD12008E7590FB7590F7120A
:10004300008E7590EF7590DF12008E7590BF7590DE
:100053007F12008EE4F5901200717590FF1200710B
:0E006300E4F59012008E7590FF12008E8092D0
:030000000200AB50
:0C00AB00787FE4F6D8FD758107020003A1
:00000001FF
