:10008600E4FFFEE4FDFC0DBD00010CED64C94C70FF
:0C009600F50FBF00010EEF64334E70E761
:0100A200223B
:1000A300E4FFFEE4FDFC0DBD00010CED64C94C70E2
:0C00B300F50FBF00010EBE01EABFF5E72B
:0100BF00221E
:1000030020B4307590FE1200867590FD120086753F
:1000130090FB1200867590F71200867590EF120020
:10002300867590DF1200867590BF12008675907FEB
:1000330012008620B5327590FE1200A37590FD1252
:1000430000A37590FB1200A37590F71200A375909F
:10005300EF1200A37590DF1200A37590BF1200A3E7
:1000630075907F1200A38098E4F590120086759036
:10007300FF120086E4F5901200A37590FF1200A30F
:0300830002000375
:030000000200C03B
:0C00C000787FE4F6D8FD7581070200038C
:00000001FF
