:0500CF00FEFDFBF7EF50
:0700C7000508060F1E0F06DD
:0800BF00D2A6E4F580C2A622DE
:0A00B500EF1F70011E144E70F722B9
:10008F001200BF7408250DF8E6F580E50D9000CF3E
:10009F0093F5A07FC87E001200B5050DE50DB405E0
:0600AF00DFE4F50D80DA2C
:03000000020003F8
:0C000300787FE4F6D8FD75810D02004AFC
:10000F0002008FE493A3F8E493A34003F68001F278
:10001F0008DFF48029E493A3F85407240CC8C333F2
:10002F00C4540F4420C8834004F456800146F6DFC1
:10003F00E4800B01020408102040809000C7E47E8A
:10004F00019360BCA3FF543F30E509541FFEE493B6
:10005F00A360010ECF54C025E060A840B8E493A37D
:10006F00FAE493A3F8E493A3C8C582C8CAC583CAA8
:10007F00F0A3C8C582C8CAC583CADFE9DEE780BE60
:0100CE000031
:00000001FF
