:10005500476F6F64206576656E696E672120202085
:0A0065000020427920487820200096
:0800B300D2A6E4F580C2A622EA
:0A002D00EB93FF1200957FC87E00E0
:10003700D3EF9400EE940040147D6E7C00ED1D70AC
:0D004700011CED4C70F7EF1F70E61E80E30A
:010054002289
:10008300C2A3C2A48F807F057E00120037D2A5C20F
:02009300A522A4
:10009500D2A3C2A48F807F057E00120037D2A5C2ED
:0200A500A52292
:10006F007F381200837F0C1200837F061200837F7C
:04007F0001020083F7
:10000300E4FB1200B312006F7F801200839000554F
:1000130012002D0BBB10F67FC4120083E4FB90008B
:0A0023006612002D0BBB08F680FEEC
:030000000200A754
:0C00A700787FE4F6D8FD758107020003A5
:00000001FF
