:10000E00F6D1FFF91E7FF9C57FFA897FF9C57FFA10
:10001E00897FF91E7FF9C5FFFFFFFFF91E7FF8B636
:10002E007FF91E7FF7D17FF8B6FFFFFFFFF7D17F75
:10003E00F8B67FF91E7FFBE940FB686CF6D17FF9BD
:10004E001E7FF9C57FFA897FFAD87FFA897FFBE98F
:10005E007FFA8940F9C540F9C5FFF91E7FF9C57FC2
:10006E00FA897FF9C57FFA897FFB6840F9C540F9A7
:10007E00C5FFFFFFFFF91E7FF9C57FFA897FFC8F51
:10008E007FFC5B7FFB687FFB68FFFBE9FFFB687F04
:10009E00FAD87FFB687FF91E7FF91EFFFAD8FFFFA3
:1000AE00FF7FF91EFFF91E7FF8B67FF7D17FF8B6F6
:1000BE007FF91EFFFFFFFFFFFFFFFAD87FFA897F50
:1000CE00FBE97FFBE97FFA897FF9C57FF9C57FF9E7
:1000DE00C57FFB687FFB687FF8B67FF9C57FF91E89
:1000EE007FF91E7FF91E7FFC8F7FFC8F7FFC5B7F6D
:1000FE00FBE97FFB6840FB6840FA897FFAD87FFBFB
:03010E0068FF0087
:03023500010A00BB
:10019D0012000385088C85098AE50A90000E93FFED
:1001AD00F46023EF6020C28CD2A37F0A7E0012027E
:1001BD0002D28CE50A90000E93F508E50AA393F59B
:1001CD0009E50AA3800EE50A90000E93B4FF16E52B
:1001DD000A90001093F50BFF7E00120202740325A6
:1001ED000AF50A80B4C28CD2A37FD07E0712020218
:0501FD00E4F50A80A4F6
:03000B00020222CC
:1002220085088C85098A200005C2A3D20032D2A398
:03023200C20032D5
:08000300758901D2AFD2A922D8
:10020200E4FDFCC3ED9FEC9E5015E4FBFA0BBB0032
:0F021200010ABA01F8BB6BF50DBD00010C80E4C9
:0102210022BA
:03000000020111E9
:0C011100787FE4F6D8FD758120020158CB
:10011D0002019DE493A3F8E493A34003F68001F25A
:10012D0008DFF48029E493A3F85407240CC8C333E3
:10013D00C4540F4420C8834004F456800146F6DFB2
:10014D00E4800B0102040810204080900235E47E0B
:10015D00019360BCA3FF543F30E509541FFEE493A7
:10016D00A360010ECF54C025E060A840B8E493A36E
:10017D00FAE493A3F8E493A3C8C582C8CAC583CA99
:10018D00F0A3C8C582C8CAC583CADFE9DEE780BE51
:0102380000C5
:00000001FF
