:10000E00F6D1FFF91E7FF9C57FFA897FF9C57FFA10
:10001E00897FF91E7FF9C5FFFFFFFFF91E7FF8B636
:10002E007FF91E7FF7D17FF8B6FFFFFFFFF7D17F75
:10003E00F8B67FF91E7FFBE940FB686CF6D17FF9BD
:10004E001E7FF9C57FFA897FFAD87FFA897FFBE98F
:10005E007FFA8940F9C540F9C5FFF91E7FF9C57FC2
:10006E00FA897FF9C57FFA897FFB6840F9C540F9A7
:10007E00C5FFFFFFFFF91E7FF9C57FFA897FFC8F51
:10008E007FFC5B7FFB687FFB68FFFBE9FFFB687F04
:10009E00FAD87FFB687FF91E7FF91EFFFAD8FFFFA3
:1000AE00FF7FF91EFFF91E7FF8B67FF7D17FF8B6F6
:1000BE007FF91EFFFFFFFFFFFFFFFA897FFA897F9F
:1000CE00FBE97FFBE97FFA897FFA897FF9C57FF922
:1000DE00C57FF9C57FFB687FFB687FF8B67FF9C5E2
:1000EE007FF91E7FF91E7FF91E7FFC8F7FFC8F7FAD
:1000FE00FC5B7FFBE97FFB6840FB6840FA897FFA77
:10010E00D87FFB68FFFFFFFFFA897FFA897FFBE943
:10011E007FFBE97FFA897FFA897FF9C57FF9C57F71
:10012E00FC5B7FFC5B40FC5B40FC5B7FFBE97FFB89
:10013E00E97FFB687FFA897FF9C540F91E40F91EF9
:10014E00FFFFFFFFF91E40F9C540FA897FFAD8403C
:04015E00FA894000DA
:03029500010A005B
:1001EE0012000385088C85098AE50A90000E93FF9C
:1001FE00F46032EF602FC28CD2A37F0A7E0012020F
:10020E0062D28CE50A90000E93F508E50AA393F5E9
:10021E0009E50AA393F50BE4F590AF0BFE1202620B
:10022E007590FF8017E50A90000E93B4FF16E50A4D
:10023E0090001093F50BFF7E001202627403250AE4
:10024E00F50A80A5C28CD2A37FD07E07120262E48B
:04025E00F50A809588
:03000B000202826C
:1002820085088C85098A200005C2A3D20032D2A338
:03029200C2003275
:08000300758901D2AFD2A922D8
:10026200E4FDFCC3ED9FEC9E5015E4FBFA0BBB00D2
:0F027200010ABA01F8BB6BF50DBD00010C80E469
:01028100225A
:0300000002016298
:0C016200787FE4F6D8FD7581200201A929
:10016E000201EEE493A3F8E493A34003F68001F2B8
:10017E0008DFF48029E493A3F85407240CC8C33392
:10018E00C4540F4420C8834004F456800146F6DF61
:10019E00E4800B0102040810204080900295E47E5A
:1001AE00019360BCA3FF543F30E509541FFEE49356
:1001BE00A360010ECF54C025E060A840B8E493A31D
:1001CE00FAE493A3F8E493A3C8C582C8CAC583CA48
:1001DE00F0A3C8C582C8CAC583CADFE9DEE780BE00
:010298000065
:00000001FF
